{
  "contractName": "TicketContract",
  "abi": [
    {
      "constant": false,
      "inputs": [
        {
          "internalType": "string",
          "name": "_conId",
          "type": "string"
        },
        {
          "internalType": "string",
          "name": "_name",
          "type": "string"
        },
        {
          "internalType": "string",
          "name": "_place",
          "type": "string"
        },
        {
          "internalType": "uint32",
          "name": "_date",
          "type": "uint32"
        }
      ],
      "name": "RegistConcert",
      "outputs": [
        {
          "internalType": "bool",
          "name": "",
          "type": "bool"
        }
      ],
      "payable": false,
      "stateMutability": "nonpayable",
      "type": "function"
    },
    {
      "constant": false,
      "inputs": [
        {
          "internalType": "string",
          "name": "_conId",
          "type": "string"
        },
        {
          "internalType": "string",
          "name": "_name",
          "type": "string"
        },
        {
          "internalType": "string",
          "name": "_place",
          "type": "string"
        },
        {
          "internalType": "uint32",
          "name": "_date",
          "type": "uint32"
        }
      ],
      "name": "UpdateConcert",
      "outputs": [
        {
          "internalType": "bool",
          "name": "",
          "type": "bool"
        }
      ],
      "payable": false,
      "stateMutability": "nonpayable",
      "type": "function"
    },
    {
      "constant": false,
      "inputs": [
        {
          "internalType": "string",
          "name": "_conId",
          "type": "string"
        },
        {
          "internalType": "string",
          "name": "_ticketId",
          "type": "string"
        },
        {
          "internalType": "uint32",
          "name": "_date",
          "type": "uint32"
        },
        {
          "internalType": "uint32",
          "name": "_time",
          "type": "uint32"
        },
        {
          "internalType": "string",
          "name": "_seat",
          "type": "string"
        },
        {
          "internalType": "bool",
          "name": "_discount",
          "type": "bool"
        },
        {
          "internalType": "uint32",
          "name": "_price",
          "type": "uint32"
        },
        {
          "internalType": "uint8",
          "name": "_discountRate",
          "type": "uint8"
        },
        {
          "internalType": "uint8",
          "name": "_fee",
          "type": "uint8"
        },
        {
          "internalType": "string",
          "name": "_cancleDate",
          "type": "string"
        },
        {
          "internalType": "string",
          "name": "_cancleFee",
          "type": "string"
        }
      ],
      "name": "BuyTicket",
      "outputs": [
        {
          "internalType": "bool",
          "name": "",
          "type": "bool"
        }
      ],
      "payable": false,
      "stateMutability": "nonpayable",
      "type": "function"
    },
    {
      "constant": false,
      "inputs": [
        {
          "internalType": "string",
          "name": "_conId",
          "type": "string"
        },
        {
          "internalType": "string",
          "name": "_ticketId",
          "type": "string"
        },
        {
          "internalType": "uint32",
          "name": "_date",
          "type": "uint32"
        },
        {
          "internalType": "uint32",
          "name": "_time",
          "type": "uint32"
        },
        {
          "internalType": "string",
          "name": "_seat",
          "type": "string"
        },
        {
          "internalType": "bool",
          "name": "_discount",
          "type": "bool"
        },
        {
          "internalType": "uint32",
          "name": "_price",
          "type": "uint32"
        },
        {
          "internalType": "uint8",
          "name": "_discountRate",
          "type": "uint8"
        },
        {
          "internalType": "uint8",
          "name": "_fee",
          "type": "uint8"
        },
        {
          "internalType": "string",
          "name": "_cancleDate",
          "type": "string"
        },
        {
          "internalType": "string",
          "name": "_cancleFee",
          "type": "string"
        }
      ],
      "name": "UpdateTicket",
      "outputs": [
        {
          "internalType": "bool",
          "name": "",
          "type": "bool"
        }
      ],
      "payable": false,
      "stateMutability": "nonpayable",
      "type": "function"
    },
    {
      "constant": false,
      "inputs": [
        {
          "internalType": "string",
          "name": "_conId",
          "type": "string"
        },
        {
          "internalType": "string",
          "name": "_ticketId",
          "type": "string"
        },
        {
          "internalType": "string",
          "name": "_name",
          "type": "string"
        },
        {
          "internalType": "string",
          "name": "_phoneNumber",
          "type": "string"
        },
        {
          "internalType": "string",
          "name": "_email",
          "type": "string"
        }
      ],
      "name": "BuyTicketByFirstTicketer",
      "outputs": [
        {
          "internalType": "bool",
          "name": "",
          "type": "bool"
        }
      ],
      "payable": false,
      "stateMutability": "nonpayable",
      "type": "function"
    },
    {
      "constant": false,
      "inputs": [
        {
          "internalType": "string",
          "name": "_conId",
          "type": "string"
        },
        {
          "internalType": "string",
          "name": "_ticketId",
          "type": "string"
        },
        {
          "internalType": "string",
          "name": "_name",
          "type": "string"
        },
        {
          "internalType": "string",
          "name": "_phoneNumber",
          "type": "string"
        },
        {
          "internalType": "string",
          "name": "_email",
          "type": "string"
        }
      ],
      "name": "BuyTicketByTransferTicketer",
      "outputs": [
        {
          "internalType": "bool",
          "name": "",
          "type": "bool"
        }
      ],
      "payable": false,
      "stateMutability": "nonpayable",
      "type": "function"
    },
    {
      "constant": true,
      "inputs": [
        {
          "internalType": "string",
          "name": "_conId",
          "type": "string"
        },
        {
          "internalType": "string",
          "name": "_ticketId",
          "type": "string"
        }
      ],
      "name": "GetTicketByConcertId",
      "outputs": [
        {
          "components": [
            {
              "internalType": "uint32",
              "name": "date",
              "type": "uint32"
            },
            {
              "internalType": "uint32",
              "name": "time",
              "type": "uint32"
            },
            {
              "internalType": "string",
              "name": "seat",
              "type": "string"
            },
            {
              "internalType": "bool",
              "name": "discount",
              "type": "bool"
            },
            {
              "internalType": "uint32",
              "name": "price",
              "type": "uint32"
            },
            {
              "internalType": "uint8",
              "name": "discountRate",
              "type": "uint8"
            },
            {
              "internalType": "uint8",
              "name": "fee",
              "type": "uint8"
            },
            {
              "internalType": "string",
              "name": "cancleDate",
              "type": "string"
            },
            {
              "internalType": "string",
              "name": "cancleFee",
              "type": "string"
            }
          ],
          "internalType": "struct TicketContract.Ticket",
          "name": "",
          "type": "tuple"
        }
      ],
      "payable": false,
      "stateMutability": "view",
      "type": "function"
    },
    {
      "constant": true,
      "inputs": [
        {
          "internalType": "string",
          "name": "_conId",
          "type": "string"
        }
      ],
      "name": "GetConcert",
      "outputs": [
        {
          "components": [
            {
              "internalType": "string",
              "name": "name",
              "type": "string"
            },
            {
              "internalType": "string",
              "name": "place",
              "type": "string"
            },
            {
              "internalType": "uint32",
              "name": "date",
              "type": "uint32"
            }
          ],
          "internalType": "struct TicketContract.Concert",
          "name": "",
          "type": "tuple"
        }
      ],
      "payable": false,
      "stateMutability": "view",
      "type": "function"
    },
    {
      "constant": true,
      "inputs": [
        {
          "internalType": "string",
          "name": "_conId",
          "type": "string"
        },
        {
          "internalType": "string",
          "name": "_ticketId",
          "type": "string"
        }
      ],
      "name": "GetFirstTicketer",
      "outputs": [
        {
          "components": [
            {
              "internalType": "string",
              "name": "name",
              "type": "string"
            },
            {
              "internalType": "string",
              "name": "phoneNumber",
              "type": "string"
            },
            {
              "internalType": "string",
              "name": "email",
              "type": "string"
            }
          ],
          "internalType": "struct TicketContract.FirstTicketer",
          "name": "",
          "type": "tuple"
        }
      ],
      "payable": false,
      "stateMutability": "view",
      "type": "function"
    },
    {
      "constant": true,
      "inputs": [
        {
          "internalType": "string",
          "name": "_conId",
          "type": "string"
        },
        {
          "internalType": "string",
          "name": "_ticketId",
          "type": "string"
        }
      ],
      "name": "GetTransferTicketer",
      "outputs": [
        {
          "components": [
            {
              "internalType": "string",
              "name": "name",
              "type": "string"
            },
            {
              "internalType": "string",
              "name": "phoneNumber",
              "type": "string"
            },
            {
              "internalType": "string",
              "name": "email",
              "type": "string"
            }
          ],
          "internalType": "struct TicketContract.TransferTicketer",
          "name": "",
          "type": "tuple"
        }
      ],
      "payable": false,
      "stateMutability": "view",
      "type": "function"
    }
  ],
  "bytecode": "0x608060405234801561001057600080fd5b50611fbf806100206000396000f3fe608060405234801561001057600080fd5b506004361061009e5760003560e01c8063600d9d0011610066578063600d9d00146101935780638b4666b0146101c35780638d771006146101f3578063f7298f8214610223578063fe2a25ab146102535761009e565b806310523dd4146100a357806319b55803146100d35780631aa88eb0146101035780631c23f18d14610133578063478531f614610163575b600080fd5b6100bd60048036036100b8919081019061164b565b610283565b6040516100ca9190611ddb565b60405180910390f35b6100ed60048036036100e89190810190611851565b610586565b6040516100fa9190611d1c565b60405180910390f35b61011d600480360361011891908101906117a6565b61087d565b60405161012a9190611d1c565b60405180910390f35b61014d600480360361014891908101906116b7565b6109b3565b60405161015a9190611d1c565b60405180910390f35b61017d6004803603610178919081019061164b565b610a7d565b60405161018a9190611dfd565b60405180910390f35b6101ad60048036036101a89190810190611851565b610cb8565b6040516101ba9190611d1c565b60405180910390f35b6101dd60048036036101d8919081019061164b565b610e9f565b6040516101ea9190611db9565b60405180910390f35b61020d600480360361020891908101906116b7565b6110da565b60405161021a9190611d1c565b60405180910390f35b61023d600480360361023891908101906117a6565b6111a4565b60405161024a9190611d1c565b60405180910390f35b61026d6004803603610268919081019061160a565b611261565b60405161027a9190611d97565b60405180910390f35b61028b611403565b60018360405161029b9190611d05565b9081526020016040518091039020826040516102b79190611d05565b9081526020016040518091039020604051806101200160405290816000820160009054906101000a900463ffffffff1663ffffffff1663ffffffff1681526020016000820160049054906101000a900463ffffffff1663ffffffff1663ffffffff168152602001600182018054600181600116156101000203166002900480601f0160208091040260200160405190810160405280929190818152602001828054600181600116156101000203166002900480156103b65780601f1061038b576101008083540402835291602001916103b6565b820191906000526020600020905b81548152906001019060200180831161039957829003601f168201915b505050505081526020016002820160009054906101000a900460ff161515151581526020016002820160019054906101000a900463ffffffff1663ffffffff1663ffffffff1681526020016002820160059054906101000a900460ff1660ff1660ff1681526020016002820160069054906101000a900460ff1660ff1660ff168152602001600382018054600181600116156101000203166002900480601f0160208091040260200160405190810160405280929190818152602001828054600181600116156101000203166002900480156104d35780601f106104a8576101008083540402835291602001916104d3565b820191906000526020600020905b8154815290600101906020018083116104b657829003601f168201915b50505050508152602001600482018054600181600116156101000203166002900480601f0160208091040260200160405190810160405280929190818152602001828054600181600116156101000203166002900480156105755780601f1061054a57610100808354040283529160200191610575565b820191906000526020600020905b81548152906001019060200180831161055857829003601f168201915b505050505081525050905092915050565b60008060008d6040516105999190611d05565b908152602001604051809103902060020160009054906101000a900463ffffffff1663ffffffff161415610602576040517f08c379a00000000000000000000000000000000000000000000000000000000081526004016105f990611d37565b60405180910390fd5b600060018d6040516106149190611d05565b90815260200160405180910390208c6040516106309190611d05565b908152602001604051809103902060000160009054906101000a900463ffffffff1663ffffffff1614610698576040517f08c379a000000000000000000000000000000000000000000000000000000000815260040161068f90611d77565b60405180910390fd5b6106a0611403565b6040518061012001604052808c63ffffffff1681526020018b63ffffffff1681526020018a815260200189151581526020018863ffffffff1681526020018760ff1681526020018660ff1681526020018581526020018481525090508060018e60405161070d9190611d05565b90815260200160405180910390208d6040516107299190611d05565b908152602001604051809103902060008201518160000160006101000a81548163ffffffff021916908363ffffffff16021790555060208201518160000160046101000a81548163ffffffff021916908363ffffffff16021790555060408201518160010190805190602001906107a1929190611469565b5060608201518160020160006101000a81548160ff02191690831515021790555060808201518160020160016101000a81548163ffffffff021916908363ffffffff16021790555060a08201518160020160056101000a81548160ff021916908360ff16021790555060c08201518160020160066101000a81548160ff021916908360ff16021790555060e0820151816003019080519060200190610847929190611469565b50610100820151816004019080519060200190610865929190611469565b5090505060019150509b9a5050505050505050505050565b6000806000866040516108909190611d05565b908152602001604051809103902060020160009054906101000a900463ffffffff1663ffffffff16146108f8576040517f08c379a00000000000000000000000000000000000000000000000000000000081526004016108ef90611d57565b60405180910390fd5b6109006114e9565b60405180606001604052808681526020018581526020018463ffffffff168152509050806000876040516109349190611d05565b9081526020016040518091039020600082015181600001908051906020019061095e929190611469565b50602082015181600101908051906020019061097b929190611469565b5060408201518160020160006101000a81548163ffffffff021916908363ffffffff1602179055509050506001915050949350505050565b60006109bd611510565b6040518060600160405280868152602001858152602001848152509050806003886040516109eb9190611d05565b908152602001604051809103902087604051610a079190611d05565b90815260200160405180910390206000820151816000019080519060200190610a31929190611469565b506020820151816001019080519060200190610a4e929190611469565b506040820151816002019080519060200190610a6b929190611469565b50905050600191505095945050505050565b610a85611510565b600383604051610a959190611d05565b908152602001604051809103902082604051610ab19190611d05565b9081526020016040518091039020604051806060016040529081600082018054600181600116156101000203166002900480601f016020809104026020016040519081016040528092919081815260200182805460018160011615610100020316600290048015610b635780601f10610b3857610100808354040283529160200191610b63565b820191906000526020600020905b815481529060010190602001808311610b4657829003601f168201915b50505050508152602001600182018054600181600116156101000203166002900480601f016020809104026020016040519081016040528092919081815260200182805460018160011615610100020316600290048015610c055780601f10610bda57610100808354040283529160200191610c05565b820191906000526020600020905b815481529060010190602001808311610be857829003601f168201915b50505050508152602001600282018054600181600116156101000203166002900480601f016020809104026020016040519081016040528092919081815260200182805460018160011615610100020316600290048015610ca75780601f10610c7c57610100808354040283529160200191610ca7565b820191906000526020600020905b815481529060010190602001808311610c8a57829003601f168201915b505050505081525050905092915050565b6000610cc2611403565b6040518061012001604052808c63ffffffff1681526020018b63ffffffff1681526020018a815260200189151581526020018863ffffffff1681526020018760ff1681526020018660ff1681526020018581526020018481525090508060018e604051610d2f9190611d05565b90815260200160405180910390208d604051610d4b9190611d05565b908152602001604051809103902060008201518160000160006101000a81548163ffffffff021916908363ffffffff16021790555060208201518160000160046101000a81548163ffffffff021916908363ffffffff1602179055506040820151816001019080519060200190610dc3929190611469565b5060608201518160020160006101000a81548160ff02191690831515021790555060808201518160020160016101000a81548163ffffffff021916908363ffffffff16021790555060a08201518160020160056101000a81548160ff021916908360ff16021790555060c08201518160020160066101000a81548160ff021916908360ff16021790555060e0820151816003019080519060200190610e69929190611469565b50610100820151816004019080519060200190610e87929190611469565b5090505060019150509b9a5050505050505050505050565b610ea7611531565b600283604051610eb79190611d05565b908152602001604051809103902082604051610ed39190611d05565b9081526020016040518091039020604051806060016040529081600082018054600181600116156101000203166002900480601f016020809104026020016040519081016040528092919081815260200182805460018160011615610100020316600290048015610f855780601f10610f5a57610100808354040283529160200191610f85565b820191906000526020600020905b815481529060010190602001808311610f6857829003601f168201915b50505050508152602001600182018054600181600116156101000203166002900480601f0160208091040260200160405190810160405280929190818152602001828054600181600116156101000203166002900480156110275780601f10610ffc57610100808354040283529160200191611027565b820191906000526020600020905b81548152906001019060200180831161100a57829003601f168201915b50505050508152602001600282018054600181600116156101000203166002900480601f0160208091040260200160405190810160405280929190818152602001828054600181600116156101000203166002900480156110c95780601f1061109e576101008083540402835291602001916110c9565b820191906000526020600020905b8154815290600101906020018083116110ac57829003601f168201915b505050505081525050905092915050565b60006110e4611531565b6040518060600160405280868152602001858152602001848152509050806002886040516111129190611d05565b90815260200160405180910390208760405161112e9190611d05565b90815260200160405180910390206000820151816000019080519060200190611158929190611469565b506020820151816001019080519060200190611175929190611469565b506040820151816002019080519060200190611192929190611469565b50905050600191505095945050505050565b60006111ae6114e9565b60405180606001604052808681526020018581526020018463ffffffff168152509050806000876040516111e29190611d05565b9081526020016040518091039020600082015181600001908051906020019061120c929190611469565b506020820151816001019080519060200190611229929190611469565b5060408201518160020160006101000a81548163ffffffff021916908363ffffffff1602179055509050506001915050949350505050565b6112696114e9565b6000826040516112799190611d05565b9081526020016040518091039020604051806060016040529081600082018054600181600116156101000203166002900480601f01602080910402602001604051908101604052809291908181526020018280546001816001161561010002031660029004801561132b5780601f106113005761010080835404028352916020019161132b565b820191906000526020600020905b81548152906001019060200180831161130e57829003601f168201915b50505050508152602001600182018054600181600116156101000203166002900480601f0160208091040260200160405190810160405280929190818152602001828054600181600116156101000203166002900480156113cd5780601f106113a2576101008083540402835291602001916113cd565b820191906000526020600020905b8154815290600101906020018083116113b057829003601f168201915b505050505081526020016002820160009054906101000a900463ffffffff1663ffffffff1663ffffffff16815250509050919050565b604051806101200160405280600063ffffffff168152602001600063ffffffff16815260200160608152602001600015158152602001600063ffffffff168152602001600060ff168152602001600060ff16815260200160608152602001606081525090565b828054600181600116156101000203166002900490600052602060002090601f016020900481019282601f106114aa57805160ff19168380011785556114d8565b828001600101855582156114d8579182015b828111156114d75782518255916020019190600101906114bc565b5b5090506114e59190611552565b5090565b60405180606001604052806060815260200160608152602001600063ffffffff1681525090565b60405180606001604052806060815260200160608152602001606081525090565b60405180606001604052806060815260200160608152602001606081525090565b61157491905b80821115611570576000816000905550600101611558565b5090565b90565b60008135905061158681611f37565b92915050565b600082601f83011261159d57600080fd5b81356115b06115ab82611e4c565b611e1f565b915080825260208301602083018583830111156115cc57600080fd5b6115d7838284611ee4565b50505092915050565b6000813590506115ef81611f4e565b92915050565b60008135905061160481611f65565b92915050565b60006020828403121561161c57600080fd5b600082013567ffffffffffffffff81111561163657600080fd5b6116428482850161158c565b91505092915050565b6000806040838503121561165e57600080fd5b600083013567ffffffffffffffff81111561167857600080fd5b6116848582860161158c565b925050602083013567ffffffffffffffff8111156116a157600080fd5b6116ad8582860161158c565b9150509250929050565b600080600080600060a086880312156116cf57600080fd5b600086013567ffffffffffffffff8111156116e957600080fd5b6116f58882890161158c565b955050602086013567ffffffffffffffff81111561171257600080fd5b61171e8882890161158c565b945050604086013567ffffffffffffffff81111561173b57600080fd5b6117478882890161158c565b935050606086013567ffffffffffffffff81111561176457600080fd5b6117708882890161158c565b925050608086013567ffffffffffffffff81111561178d57600080fd5b6117998882890161158c565b9150509295509295909350565b600080600080608085870312156117bc57600080fd5b600085013567ffffffffffffffff8111156117d657600080fd5b6117e28782880161158c565b945050602085013567ffffffffffffffff8111156117ff57600080fd5b61180b8782880161158c565b935050604085013567ffffffffffffffff81111561182857600080fd5b6118348782880161158c565b9250506060611845878288016115e0565b91505092959194509250565b60008060008060008060008060008060006101608c8e03121561187357600080fd5b60008c013567ffffffffffffffff81111561188d57600080fd5b6118998e828f0161158c565b9b505060208c013567ffffffffffffffff8111156118b657600080fd5b6118c28e828f0161158c565b9a505060406118d38e828f016115e0565b99505060606118e48e828f016115e0565b98505060808c013567ffffffffffffffff81111561190157600080fd5b61190d8e828f0161158c565b97505060a061191e8e828f01611577565b96505060c061192f8e828f016115e0565b95505060e06119408e828f016115f5565b9450506101006119528e828f016115f5565b9350506101208c013567ffffffffffffffff81111561197057600080fd5b61197c8e828f0161158c565b9250506101408c013567ffffffffffffffff81111561199a57600080fd5b6119a68e828f0161158c565b9150509295989b509295989b9093969950565b6119c281611ebb565b82525050565b6119d181611ebb565b82525050565b60006119e282611e83565b6119ec8185611eb0565b93506119fc818560208601611ef3565b80840191505092915050565b6000611a1382611e78565b611a1d8185611e8e565b9350611a2d818560208601611ef3565b611a3681611f26565b840191505092915050565b6000611a4e601183611e9f565b91507f4e6f7420457869737420636f6e636572740000000000000000000000000000006000830152602082019050919050565b6000611a8e600d83611e9f565b91507f457869737420436f6e63657274000000000000000000000000000000000000006000830152602082019050919050565b6000611ace600c83611e9f565b91507f4578697374207469636b657400000000000000000000000000000000000000006000830152602082019050919050565b60006060830160008301518482036000860152611b1e8282611a08565b91505060208301518482036020860152611b388282611a08565b9150506040830151611b4d6040860182611ce7565b508091505092915050565b60006060830160008301518482036000860152611b758282611a08565b91505060208301518482036020860152611b8f8282611a08565b91505060408301518482036040860152611ba98282611a08565b9150508091505092915050565b600061012083016000830151611bcf6000860182611ce7565b506020830151611be26020860182611ce7565b5060408301518482036040860152611bfa8282611a08565b9150506060830151611c0f60608601826119b9565b506080830151611c226080860182611ce7565b5060a0830151611c3560a0860182611cf6565b5060c0830151611c4860c0860182611cf6565b5060e083015184820360e0860152611c608282611a08565b915050610100830151848203610100860152611c7c8282611a08565b9150508091505092915050565b60006060830160008301518482036000860152611ca68282611a08565b91505060208301518482036020860152611cc08282611a08565b91505060408301518482036040860152611cda8282611a08565b9150508091505092915050565b611cf081611ec7565b82525050565b611cff81611ed7565b82525050565b6000611d1182846119d7565b915081905092915050565b6000602082019050611d3160008301846119c8565b92915050565b60006020820190508181036000830152611d5081611a41565b9050919050565b60006020820190508181036000830152611d7081611a81565b9050919050565b60006020820190508181036000830152611d9081611ac1565b9050919050565b60006020820190508181036000830152611db18184611b01565b905092915050565b60006020820190508181036000830152611dd38184611b58565b905092915050565b60006020820190508181036000830152611df58184611bb6565b905092915050565b60006020820190508181036000830152611e178184611c89565b905092915050565b6000604051905081810181811067ffffffffffffffff82111715611e4257600080fd5b8060405250919050565b600067ffffffffffffffff821115611e6357600080fd5b601f19601f8301169050602081019050919050565b600081519050919050565b600081519050919050565b600082825260208201905092915050565b600082825260208201905092915050565b600081905092915050565b60008115159050919050565b600063ffffffff82169050919050565b600060ff82169050919050565b82818337600083830152505050565b60005b83811015611f11578082015181840152602081019050611ef6565b83811115611f20576000848401525b50505050565b6000601f19601f8301169050919050565b611f4081611ebb565b8114611f4b57600080fd5b50565b611f5781611ec7565b8114611f6257600080fd5b50565b611f6e81611ed7565b8114611f7957600080fd5b5056fea365627a7a723158202533c740dc6e088de2f78b92bf58ea64aa2553bf31dee7c8a8c06766efc03e366c6578706572696d656e74616cf564736f6c63430005100040",
  "source": "// SPDX-License-Identifier: MIT\r\npragma solidity >=0.4.22 <0.8.0;\r\npragma experimental ABIEncoderV2;\r\n\r\ncontract TicketContract {\r\n\r\n    //  \r\n    // name  :  \r\n    // place :  \r\n    // date  :  \r\n    struct Concert {\r\n        string name;\r\n        string place;\r\n        uint32 date;\r\n    }\r\n\r\n    //  \r\n    struct Ticket {\r\n        uint32 date;\r\n        uint32 time;\r\n        string seat;\r\n        bool discount;\r\n        uint32 price;\r\n        uint8 discountRate;\r\n        uint8 fee;\r\n        string cancleDate;\r\n        string cancleFee;\r\n    }\r\n\r\n    //   \r\n    struct FirstTicketer {\r\n        string name;\r\n        string phoneNumber;\r\n        string email;\r\n    }\r\n\r\n    //    \r\n    struct TransferTicketer {\r\n        string name;\r\n        string phoneNumber;\r\n        string email;\r\n    }\r\n\r\n    mapping(string => Concert) concerts;\r\n    // mapping(uint256 => Ticket[]) tickets;\r\n    // mapping(uint256 => FirstTicketer[]) firstTicketers;\r\n    mapping(string => mapping(string => Ticket)) tickets;\r\n    mapping(string => mapping(string => FirstTicketer)) firstTicketers;\r\n    mapping(string => mapping(string => TransferTicketer)) transferTicketers;\r\n\r\n    // event _registConcert(string name, string place, string date);\r\n    // event _buyTicket(\r\n    //     uint256 _conId,\r\n    //     string _name,\r\n    //     string _birth,\r\n    //     string _phoneNumber,\r\n    //     string email\r\n    // );\r\n\r\n    // functions\r\n    function RegistConcert(\r\n        string memory _conId,\r\n        string memory _name,\r\n        string memory _place,\r\n        uint32 _date\r\n    ) public returns (bool) {\r\n        require(concerts[_conId].date == 0 , \"Exist Concert\");\r\n        Concert memory _concert = Concert({\r\n            name: _name,\r\n            place: _place,\r\n            date: _date\r\n        });\r\n\r\n        concerts[_conId] = _concert;\r\n\r\n        // _registConcert(_name, _place, _date);\r\n\r\n        return true;\r\n    }\r\n\r\n    function UpdateConcert(\r\n        string memory _conId,\r\n        string memory _name,\r\n        string memory _place,\r\n        uint32 _date\r\n    ) public returns(bool) {\r\n        Concert memory _concert = Concert({\r\n            name: _name,\r\n            place: _place,\r\n            date: _date\r\n        });\r\n\r\n        concerts[_conId] = _concert;\r\n\r\n        return true;\r\n    }\r\n\r\n    function BuyTicket(\r\n        string memory _conId,\r\n        string memory _ticketId,\r\n        uint32 _date,\r\n        uint32 _time,\r\n        string memory _seat,\r\n        bool _discount,\r\n        uint32 _price,\r\n        uint8 _discountRate,\r\n        uint8 _fee,\r\n        string memory _cancleDate,\r\n        string memory _cancleFee\r\n    ) public returns (bool) {\r\n        // require(concerts[_conId].name.length != 0, \"there is no concert\");\r\n        require(concerts[_conId].date != 0, \"Not Exist concert\");        \r\n        require(tickets[_conId][_ticketId].date == 0, \"Exist ticket\");\r\n        Ticket memory _tk = Ticket({\r\n            date: _date,\r\n            time: _time,\r\n            seat: _seat,\r\n            discount: _discount,\r\n            price: _price,\r\n            discountRate: _discountRate,\r\n            fee: _fee,\r\n            cancleDate: _cancleDate,\r\n            cancleFee: _cancleFee\r\n        });\r\n\r\n        tickets[_conId][_ticketId] = _tk;\r\n\r\n        return true;\r\n    }\r\n\r\n    function UpdateTicket(\r\n        string memory _conId,\r\n        string memory _ticketId,\r\n        uint32 _date,\r\n        uint32 _time,\r\n        string memory _seat,\r\n        bool _discount,\r\n        uint32 _price,\r\n        uint8 _discountRate,\r\n        uint8 _fee,\r\n        string memory _cancleDate,\r\n        string memory _cancleFee\r\n    ) public returns (bool) {\r\n        \r\n        Ticket memory _tk = Ticket({\r\n            date: _date,\r\n            time: _time,\r\n            seat: _seat,\r\n            discount: _discount,\r\n            price: _price,\r\n            discountRate: _discountRate,\r\n            fee: _fee,\r\n            cancleDate: _cancleDate,\r\n            cancleFee: _cancleFee\r\n        });\r\n\r\n        tickets[_conId][_ticketId] = _tk;\r\n\r\n        return true;\r\n    }\r\n\r\n    function BuyTicketByFirstTicketer(\r\n        string memory _conId,\r\n        string memory _ticketId, \r\n        string memory _name,\r\n        string memory _phoneNumber,\r\n        string memory _email\r\n    ) public returns(bool) {\r\n        FirstTicketer memory _ft = FirstTicketer({\r\n            name: _name,\r\n            phoneNumber: _phoneNumber,\r\n            email: _email\r\n        });\r\n\r\n        firstTicketers[_conId][_ticketId] = _ft;\r\n\r\n        return true;\r\n    }\r\n\r\n    function BuyTicketByTransferTicketer(\r\n        string memory _conId,\r\n        string memory _ticketId,\r\n        string memory _name,\r\n        string memory _phoneNumber,\r\n        string memory _email\r\n    ) public returns(bool) {\r\n        TransferTicketer memory _tt = TransferTicketer({\r\n            name: _name,\r\n            phoneNumber: _phoneNumber,\r\n            email: _email\r\n        });\r\n\r\n        transferTicketers[_conId][_ticketId] = _tt;\r\n\r\n        return true;\r\n    }\r\n\r\n\r\n    /*\r\n        Getters\r\n     */\r\n    function GetTicketByConcertId(string memory _conId, string memory _ticketId) public view returns(Ticket memory) {\r\n        return tickets[_conId][_ticketId];\r\n    }\r\n\r\n    // function GetConcertLength() public view returns(uint256) {\r\n    //     return concerts.length;\r\n    // }\r\n\r\n    function GetConcert(string memory _conId) public view returns(Concert memory) {\r\n        return concerts[_conId];\r\n    }\r\n\r\n    function GetFirstTicketer(string memory _conId, string memory _ticketId) public view returns(FirstTicketer memory) {\r\n        return firstTicketers[_conId][_ticketId];\r\n    }\r\n\r\n    function GetTransferTicketer(string memory _conId, string memory _ticketId) public view returns(TransferTicketer memory) {\r\n        return transferTicketers[_conId][_ticketId];\r\n    }\r\n\r\n}",
  "sourcePath": "C:\\Users\\moons\\Desktop\\ticket-bc\\contracts\\TicketContract.sol",
  "compiler": {
    "name": "solc",
    "version": "0.5.16+commit.9c3226ce.Emscripten.clang"
  },
  "schemaVersion": "3.4.13",
  "updatedAt": "2023-05-04T07:35:56.815Z",
  "networkType": "ethereum",
  "devdoc": {
    "methods": {}
  },
  "userdoc": {
    "methods": {}
  }
}